:100000000C9434000C9451000C9451000C94510049
:100010000C9451000C9451000C9451000C9451001C
:100020000C9451000C9451000C9451000C9451000C
:100030000C9451000C9451000C9451000C945100FC
:100040000C94A0000C9451000C9451000C9451009D
:100050000C9451000C9451000C9451000C945100DC
:100060000C9451000C94510011241FBECFEFD8E026
:10007000DEBFCDBF21E0A6E0B1E001C01D92A331FB
:10008000B207E1F711E0A0E0B1E0EEE4F2E002C077
:1000900005900D92A630B107D9F70E9491000C94FB
:1000A00025010C94000008950C946800E091110162
:1000B000F091120180E090E0309749F002962081A3
:1000C0003181820F931F0280F381E02DF5CF0895D7
:1000D0000F931F93CF93DF9300D0CDB7DEB78091FE
:1000E0000F01909110018E010F5F1F4F009729F4AF
:1000F000035111401A8309830AC0081B190B1A8384
:1001000009830E945600800F911F9A8389838981F9
:100110009A810F900F90DF91CF911F910F910895C9
:1001200008950E94EA000E9490000E945300C0E0DF
:10013000D0E00E9454002097E1F30E940000F9CF24
:100140001F920F920FB60F9211242F933F938F930C
:100150009F93AF93BF938091070190910801A09165
:100160000901B0910A013091060123E0230F2D37D8
:1001700020F40196A11DB11D05C026E8230F0296AB
:10018000A11DB11D209306018093070190930801E2
:10019000A0930901B0930A0180910B0190910C0189
:1001A000A0910D01B0910E010196A11DB11D80938A
:1001B0000B0190930C01A0930D01B0930E01BF9120
:1001C000AF919F918F913F912F910F900FBE0F9004
:1001D0001F901895789484B5826084BD84B5816041
:1001E00084BD85B5826085BD85B5816085BDEEE63F
:1001F000F0E0808181608083E1E8F0E0108280811E
:1002000082608083808181608083E0E8F0E080818B
:1002100081608083E1EBF0E0808184608083E0EBAB
:10022000F0E0808181608083EAE7F0E08081846093
:1002300080838081826080838081816080838081EF
:0E024000806880831092C1000895F894FFCF6B
:06024E0000001301800016
:00000001FF
